{
  "contractName": "createCS",
  "abi": [
    {
      "inputs": [
        {
          "internalType": "uint256",
          "name": "",
          "type": "uint256"
        }
      ],
      "name": "allcs",
      "outputs": [
        {
          "internalType": "address",
          "name": "creater",
          "type": "address"
        },
        {
          "internalType": "address",
          "name": "wallet",
          "type": "address"
        },
        {
          "internalType": "address",
          "name": "csAdd",
          "type": "address"
        },
        {
          "internalType": "uint256",
          "name": "rate",
          "type": "uint256"
        }
      ],
      "stateMutability": "view",
      "type": "function"
    },
    {
      "inputs": [
        {
          "internalType": "uint256",
          "name": "rate",
          "type": "uint256"
        },
        {
          "internalType": "contract ERC20",
          "name": "_tkn",
          "type": "address"
        },
        {
          "internalType": "address",
          "name": "wallet",
          "type": "address"
        }
      ],
      "name": "createCs",
      "outputs": [
        {
          "internalType": "uint256",
          "name": "",
          "type": "uint256"
        }
      ],
      "stateMutability": "nonpayable",
      "type": "function"
    },
    {
      "inputs": [
        {
          "internalType": "uint256",
          "name": "_id",
          "type": "uint256"
        }
      ],
      "name": "seeUrCs",
      "outputs": [
        {
          "components": [
            {
              "internalType": "address",
              "name": "creater",
              "type": "address"
            },
            {
              "internalType": "address",
              "name": "wallet",
              "type": "address"
            },
            {
              "internalType": "address",
              "name": "csAdd",
              "type": "address"
            },
            {
              "internalType": "uint256",
              "name": "rate",
              "type": "uint256"
            }
          ],
          "internalType": "struct createCS.CS",
          "name": "",
          "type": "tuple"
        }
      ],
      "stateMutability": "nonpayable",
      "type": "function"
    }
  ],
  "bytecode": "0x608060405234801561001057600080fd5b5061131d806100206000396000f3fe60806040523480156200001157600080fd5b5060043610620000465760003560e01c806318d46ec0146200004b5780634b07d9251462000084578063814e3a3414620000ba575b600080fd5b62000069600480360381019062000063919062000527565b620000f0565b6040516200007b9493929190620005af565b60405180910390f35b620000a260048036038101906200009c919062000672565b62000180565b604051620000b19190620006ce565b60405180910390f35b620000d86004803603810190620000d2919062000527565b6200028d565b604051620000e791906200076a565b60405180910390f35b60026020528060005260406000206000915090508060000160009054906101000a900473ffffffffffffffffffffffffffffffffffffffff16908060010160009054906101000a900473ffffffffffffffffffffffffffffffffffffffff16908060020160009054906101000a900473ffffffffffffffffffffffffffffffffffffffff16908060030154905084565b600080600160008154809291906200019890620007b6565b9190505590506000600260008381526020019081526020016000209050338160000160006101000a81548173ffffffffffffffffffffffffffffffffffffffff021916908373ffffffffffffffffffffffffffffffffffffffff16021790555085848660405162000209906200046f565b62000217939291906200086e565b604051809103906000f08015801562000234573d6000803e3d6000fd5b508160020160006101000a81548173ffffffffffffffffffffffffffffffffffffffff021916908373ffffffffffffffffffffffffffffffffffffffff1602179055506064816003018190555081925050509392505050565b620002976200047d565b3373ffffffffffffffffffffffffffffffffffffffff166002600084815260200190815260200160002060000160009054906101000a900473ffffffffffffffffffffffffffffffffffffffff1673ffffffffffffffffffffffffffffffffffffffff16146200033e576040517f08c379a000000000000000000000000000000000000000000000000000000000815260040162000335906200090c565b60405180910390fd5b600260008381526020019081526020016000206040518060800160405290816000820160009054906101000a900473ffffffffffffffffffffffffffffffffffffffff1673ffffffffffffffffffffffffffffffffffffffff1673ffffffffffffffffffffffffffffffffffffffff1681526020016001820160009054906101000a900473ffffffffffffffffffffffffffffffffffffffff1673ffffffffffffffffffffffffffffffffffffffff1673ffffffffffffffffffffffffffffffffffffffff1681526020016002820160009054906101000a900473ffffffffffffffffffffffffffffffffffffffff1673ffffffffffffffffffffffffffffffffffffffff1673ffffffffffffffffffffffffffffffffffffffff1681526020016003820154815250509050919050565b6109b9806200092f83390190565b6040518060800160405280600073ffffffffffffffffffffffffffffffffffffffff168152602001600073ffffffffffffffffffffffffffffffffffffffff168152602001600073ffffffffffffffffffffffffffffffffffffffff168152602001600081525090565b600080fd5b6000819050919050565b6200050181620004ec565b81146200050d57600080fd5b50565b6000813590506200052181620004f6565b92915050565b60006020828403121562000540576200053f620004e7565b5b6000620005508482850162000510565b91505092915050565b600073ffffffffffffffffffffffffffffffffffffffff82169050919050565b6000620005868262000559565b9050919050565b620005988162000579565b82525050565b620005a981620004ec565b82525050565b6000608082019050620005c660008301876200058d565b620005d560208301866200058d565b620005e460408301856200058d565b620005f360608301846200059e565b95945050505050565b6000620006098262000579565b9050919050565b6200061b81620005fc565b81146200062757600080fd5b50565b6000813590506200063b8162000610565b92915050565b6200064c8162000579565b81146200065857600080fd5b50565b6000813590506200066c8162000641565b92915050565b6000806000606084860312156200068e576200068d620004e7565b5b60006200069e8682870162000510565b9350506020620006b1868287016200062a565b9250506040620006c4868287016200065b565b9150509250925092565b6000602082019050620006e560008301846200059e565b92915050565b620006f68162000579565b82525050565b6200070781620004ec565b82525050565b608082016000820151620007256000850182620006eb565b5060208201516200073a6020850182620006eb565b5060408201516200074f6040850182620006eb565b506060820151620007646060850182620006fc565b50505050565b60006080820190506200078160008301846200070d565b92915050565b7f4e487b7100000000000000000000000000000000000000000000000000000000600052601160045260246000fd5b6000620007c382620004ec565b91507fffffffffffffffffffffffffffffffffffffffffffffffffffffffffffffffff8203620007f857620007f762000787565b5b600182019050919050565b6000819050919050565b60006200082e62000828620008228462000559565b62000803565b62000559565b9050919050565b600062000842826200080d565b9050919050565b6000620008568262000835565b9050919050565b620008688162000849565b82525050565b60006060820190506200088560008301866200059e565b6200089460208301856200058d565b620008a360408301846200085d565b949350505050565b600082825260208201905092915050565b7f6e6f742063726561746572000000000000000000000000000000000000000000600082015250565b6000620008f4600b83620008ab565b91506200090182620008bc565b602082019050919050565b600060208201905081810360008301526200092781620008e5565b905091905056fe608060405234801561001057600080fd5b50604051620009b9380380620009b98339818101604052810190610034919061021a565b6000831161004157600080fd5b600073ffffffffffffffffffffffffffffffffffffffff168273ffffffffffffffffffffffffffffffffffffffff160361007a57600080fd5b600073ffffffffffffffffffffffffffffffffffffffff168173ffffffffffffffffffffffffffffffffffffffff16036100b357600080fd5b8260028190555081600160006101000a81548173ffffffffffffffffffffffffffffffffffffffff021916908373ffffffffffffffffffffffffffffffffffffffff160217905550806000806101000a81548173ffffffffffffffffffffffffffffffffffffffff021916908373ffffffffffffffffffffffffffffffffffffffff16021790555050505061026d565b600080fd5b6000819050919050565b61015b81610148565b811461016657600080fd5b50565b60008151905061017881610152565b92915050565b600073ffffffffffffffffffffffffffffffffffffffff82169050919050565b60006101a98261017e565b9050919050565b6101b98161019e565b81146101c457600080fd5b50565b6000815190506101d6816101b0565b92915050565b60006101e78261019e565b9050919050565b6101f7816101dc565b811461020257600080fd5b50565b600081519050610214816101ee565b92915050565b60008060006060848603121561023357610232610143565b5b600061024186828701610169565b9350506020610252868287016101c7565b925050604061026386828701610205565b9150509250925092565b61073c806200027d6000396000f3fe60806040526004361061004e5760003560e01c80632c4e722e146100695780634042b66f14610094578063521eb273146100bf578063ec8ac4d8146100ea578063fc0c546a146101065761005e565b3661005e5761005c33610131565b005b61006733610131565b005b34801561007557600080fd5b5061007e6101fa565b60405161008b9190610421565b60405180910390f35b3480156100a057600080fd5b506100a9610200565b6040516100b69190610421565b60405180910390f35b3480156100cb57600080fd5b506100d4610206565b6040516100e1919061047d565b60405180910390f35b61010460048036038101906100ff91906104c9565b610131565b005b34801561011257600080fd5b5061011b61022c565b6040516101289190610555565b60405180910390f35b60003490506101408282610250565b600061014b8261029a565b9050610162826003546102b890919063ffffffff16565b60038190555061017283826102ce565b8273ffffffffffffffffffffffffffffffffffffffff163373ffffffffffffffffffffffffffffffffffffffff167f623b3804fa71d67900d064613da8f94b9617215ee90799290593e1745087ad1884846040516101d1929190610570565b60405180910390a36101e383836102dc565b6101eb6102e0565b6101f5838361034b565b505050565b60025481565b60035481565b600160009054906101000a900473ffffffffffffffffffffffffffffffffffffffff1681565b60008054906101000a900473ffffffffffffffffffffffffffffffffffffffff1681565b600073ffffffffffffffffffffffffffffffffffffffff168273ffffffffffffffffffffffffffffffffffffffff160361028957600080fd5b6000810361029657600080fd5b5050565b60006102b16002548361034f90919063ffffffff16565b9050919050565b600081836102c691906105c8565b905092915050565b6102d88282610365565b5050565b5050565b600160009054906101000a900473ffffffffffffffffffffffffffffffffffffffff1673ffffffffffffffffffffffffffffffffffffffff166108fc349081150290604051600060405180830381858888f19350505050158015610348573d6000803e3d6000fd5b50565b5050565b6000818361035d919061061e565b905092915050565b60008054906101000a900473ffffffffffffffffffffffffffffffffffffffff1673ffffffffffffffffffffffffffffffffffffffff1663a9059cbb83836040518363ffffffff1660e01b81526004016103c0929190610678565b6020604051808303816000875af11580156103df573d6000803e3d6000fd5b505050506040513d601f19601f8201168201806040525081019061040391906106d9565b505050565b6000819050919050565b61041b81610408565b82525050565b60006020820190506104366000830184610412565b92915050565b600073ffffffffffffffffffffffffffffffffffffffff82169050919050565b60006104678261043c565b9050919050565b6104778161045c565b82525050565b6000602082019050610492600083018461046e565b92915050565b600080fd5b6104a68161045c565b81146104b157600080fd5b50565b6000813590506104c38161049d565b92915050565b6000602082840312156104df576104de610498565b5b60006104ed848285016104b4565b91505092915050565b6000819050919050565b600061051b6105166105118461043c565b6104f6565b61043c565b9050919050565b600061052d82610500565b9050919050565b600061053f82610522565b9050919050565b61054f81610534565b82525050565b600060208201905061056a6000830184610546565b92915050565b60006040820190506105856000830185610412565b6105926020830184610412565b9392505050565b7f4e487b7100000000000000000000000000000000000000000000000000000000600052601160045260246000fd5b60006105d382610408565b91506105de83610408565b9250827fffffffffffffffffffffffffffffffffffffffffffffffffffffffffffffffff0382111561061357610612610599565b5b828201905092915050565b600061062982610408565b915061063483610408565b9250817fffffffffffffffffffffffffffffffffffffffffffffffffffffffffffffffff048311821515161561066d5761066c610599565b5b828202905092915050565b600060408201905061068d600083018561046e565b61069a6020830184610412565b9392505050565b60008115159050919050565b6106b6816106a1565b81146106c157600080fd5b50565b6000815190506106d3816106ad565b92915050565b6000602082840312156106ef576106ee610498565b5b60006106fd848285016106c4565b9150509291505056fea26469706673582212208edb164574231f2e16322bab79d5e0afe6660d159ef202750755e0724ae6457f64736f6c634300080e0033a264697066735822122006ce1de361131efaa078e35f80aa0411335f3db7427408af9f5b0fdd1b4755c864736f6c634300080e0033",
  "immutableReferences": {},
  "source": "// SPDX-License-Identifier: MIT\npragma solidity ^0.8.0;\nimport \"@openzeppelin/contracts/token/ERC20/ERC20.sol\";\nimport \"./Crowdsale.sol\";\ncontract createCS{\n    ERC20 tkn;\n    uint totalid;\n    struct h{\n        uint a;\n    }\n    struct CS{\n        address creater; \n        address wallet;\n        address csAdd;\n        uint rate;\n    }\n\n    mapping (uint=>CS) public allcs;\n\n    function createCs(uint rate,ERC20 _tkn,address wallet) public returns(uint){\n        uint id=totalid++; \n        CS storage yes=allcs[id];\n        yes.creater=msg.sender;\n        yes.csAdd=address(new Crowdsale(rate,wallet,_tkn));\n        yes.rate=100;\n        return id;\n    }\n    function seeUrCs(uint _id) public returns(CS memory){\n        require(allcs[_id].creater==msg.sender,\"not creater\");\n        return allcs[_id];\n    }\n}",
  "sourcePath": "/Users/yaksheshgupta/Desktop/EthIndia/contracts/create_CS.sol",
  "compiler": {
    "name": "solc",
    "version": "0.8.14+commit.80d49f37.Emscripten.clang"
  },
  "schemaVersion": "3.4.7",
  "updatedAt": "2022-12-03T16:51:17.421Z",
  "devdoc": {
    "kind": "dev",
    "methods": {},
    "version": 1
  },
  "userdoc": {
    "kind": "user",
    "methods": {},
    "version": 1
  }
}