{
  "contractName": "test",
  "abi": [
    {
      "inputs": [
        {
          "internalType": "contract ERC20",
          "name": "tt",
          "type": "address"
        }
      ],
      "stateMutability": "nonpayable",
      "type": "constructor"
    },
    {
      "inputs": [],
      "name": "namee",
      "outputs": [
        {
          "internalType": "string",
          "name": "",
          "type": "string"
        }
      ],
      "stateMutability": "view",
      "type": "function"
    },
    {
      "inputs": [],
      "name": "ret",
      "outputs": [
        {
          "internalType": "string",
          "name": "",
          "type": "string"
        }
      ],
      "stateMutability": "pure",
      "type": "function"
    },
    {
      "inputs": [],
      "name": "re2t",
      "outputs": [
        {
          "internalType": "address",
          "name": "",
          "type": "address"
        }
      ],
      "stateMutability": "view",
      "type": "function"
    }
  ],
  "bytecode": "0x608060405234801561001057600080fd5b50604051610579380380610579833981810160405281019061003291906100ed565b806000806101000a81548173ffffffffffffffffffffffffffffffffffffffff021916908373ffffffffffffffffffffffffffffffffffffffff1602179055505061011a565b600080fd5b600073ffffffffffffffffffffffffffffffffffffffff82169050919050565b60006100a88261007d565b9050919050565b60006100ba8261009d565b9050919050565b6100ca816100af565b81146100d557600080fd5b50565b6000815190506100e7816100c1565b92915050565b60006020828403121561010357610102610078565b5b6000610111848285016100d8565b91505092915050565b610450806101296000396000f3fe608060405234801561001057600080fd5b50600436106100415760003560e01c80631b08d96f14610046578063ad91204614610064578063c99fd49b14610082575b600080fd5b61004e6100a0565b60405161005b9190610219565b60405180910390f35b61006c6100dd565b604051610079919061027c565b60405180910390f35b61008a6100e5565b6040516100979190610219565b60405180910390f35b60606040518060400160405280600581526020017f79616b736a000000000000000000000000000000000000000000000000000000815250905090565b600030905090565b606060008054906101000a900473ffffffffffffffffffffffffffffffffffffffff1673ffffffffffffffffffffffffffffffffffffffff166306fdde036040518163ffffffff1660e01b8152600401600060405180830381865afa158015610152573d6000803e3d6000fd5b505050506040513d6000823e3d601f19601f8201168201806040525081019061017b91906103d1565b905090565b600081519050919050565b600082825260208201905092915050565b60005b838110156101ba57808201518184015260208101905061019f565b838111156101c9576000848401525b50505050565b6000601f19601f8301169050919050565b60006101eb82610180565b6101f5818561018b565b935061020581856020860161019c565b61020e816101cf565b840191505092915050565b6000602082019050818103600083015261023381846101e0565b905092915050565b600073ffffffffffffffffffffffffffffffffffffffff82169050919050565b60006102668261023b565b9050919050565b6102768161025b565b82525050565b6000602082019050610291600083018461026d565b92915050565b6000604051905090565b600080fd5b600080fd5b600080fd5b600080fd5b7f4e487b7100000000000000000000000000000000000000000000000000000000600052604160045260246000fd5b6102ed826101cf565b810181811067ffffffffffffffff8211171561030c5761030b6102b5565b5b80604052505050565b600061031f610297565b905061032b82826102e4565b919050565b600067ffffffffffffffff82111561034b5761034a6102b5565b5b610354826101cf565b9050602081019050919050565b600061037461036f84610330565b610315565b9050828152602081018484840111156103905761038f6102b0565b5b61039b84828561019c565b509392505050565b600082601f8301126103b8576103b76102ab565b5b81516103c8848260208601610361565b91505092915050565b6000602082840312156103e7576103e66102a1565b5b600082015167ffffffffffffffff811115610405576104046102a6565b5b610411848285016103a3565b9150509291505056fea264697066735822122037b83c39cc57eaacf61fdd6ec509c725fad214ff3669bdddc7d4f25bb4ddb25564736f6c634300080e0033",
  "immutableReferences": {},
  "source": "// SPDX-License-Identifier: MIT\npragma solidity ^0.8.0;\nimport \"@openzeppelin/contracts/token/ERC20/ERC20.sol\";\nimport \"./Crowdsale.sol\";\ncontract test{\n    ERC20 tkn;\n    constructor(ERC20 tt){\n        tkn=tt;\n    }\n\n    function namee()public view returns(string memory){\n        return tkn.name();\n    }\n    function ret()public pure returns(string memory) {\n        return \"yaksj\";\n    }\n    function re2t()public view returns(address) {\n        return address(this);\n    }\n}",
  "sourcePath": "/Users/yaksheshgupta/Desktop/EthIndia/contracts/end.sol",
  "compiler": {
    "name": "solc",
    "version": "0.8.14+commit.80d49f37.Emscripten.clang"
  },
  "schemaVersion": "3.4.7",
  "updatedAt": "2022-12-03T11:08:20.178Z",
  "devdoc": {
    "kind": "dev",
    "methods": {},
    "version": 1
  },
  "userdoc": {
    "kind": "user",
    "methods": {},
    "version": 1
  }
}